{
  "contractName": "SupplyChain",
  "abi": [
    {
      "inputs": [],
      "stateMutability": "nonpayable",
      "type": "constructor"
    },
    {
      "anonymous": false,
      "inputs": [
        {
          "indexed": true,
          "internalType": "uint256",
          "name": "medicineId",
          "type": "uint256"
        },
        {
          "indexed": false,
          "internalType": "string",
          "name": "name",
          "type": "string"
        }
      ],
      "name": "MedicineAdded",
      "type": "event"
    },
    {
      "anonymous": false,
      "inputs": [
        {
          "indexed": true,
          "internalType": "uint256",
          "name": "medicineId",
          "type": "uint256"
        },
        {
          "indexed": false,
          "internalType": "enum SupplyChain.Stage",
          "name": "newStage",
          "type": "uint8"
        }
      ],
      "name": "MedicineStageUpdated",
      "type": "event"
    },
    {
      "anonymous": false,
      "inputs": [
        {
          "indexed": true,
          "internalType": "address",
          "name": "participant",
          "type": "address"
        },
        {
          "indexed": false,
          "internalType": "string",
          "name": "role",
          "type": "string"
        }
      ],
      "name": "ParticipantAdded",
      "type": "event"
    },
    {
      "anonymous": false,
      "inputs": [
        {
          "indexed": true,
          "internalType": "uint256",
          "name": "medicineId",
          "type": "uint256"
        },
        {
          "indexed": false,
          "internalType": "string",
          "name": "trackingId",
          "type": "string"
        }
      ],
      "name": "ShipmentCreated",
      "type": "event"
    },
    {
      "anonymous": false,
      "inputs": [
        {
          "indexed": true,
          "internalType": "uint256",
          "name": "shipmentId",
          "type": "uint256"
        },
        {
          "indexed": true,
          "internalType": "uint256",
          "name": "medicineId",
          "type": "uint256"
        },
        {
          "indexed": false,
          "internalType": "string",
          "name": "notes",
          "type": "string"
        },
        {
          "indexed": true,
          "internalType": "address",
          "name": "updatedBy",
          "type": "address"
        }
      ],
      "name": "ShipmentStatusUpdated",
      "type": "event"
    },
    {
      "anonymous": false,
      "inputs": [
        {
          "indexed": false,
          "internalType": "string",
          "name": "trackingId",
          "type": "string"
        },
        {
          "indexed": false,
          "internalType": "enum SupplyChain.ShipmentStatus",
          "name": "status",
          "type": "uint8"
        }
      ],
      "name": "ShipmentUpdated",
      "type": "event"
    },
    {
      "anonymous": false,
      "inputs": [
        {
          "indexed": true,
          "internalType": "uint256",
          "name": "medicineId",
          "type": "uint256"
        },
        {
          "indexed": false,
          "internalType": "string",
          "name": "action",
          "type": "string"
        },
        {
          "indexed": false,
          "internalType": "address",
          "name": "participant",
          "type": "address"
        }
      ],
      "name": "TransactionRecorded",
      "type": "event"
    },
    {
      "inputs": [
        {
          "internalType": "address",
          "name": "",
          "type": "address"
        }
      ],
      "name": "distributors",
      "outputs": [
        {
          "internalType": "address",
          "name": "addr",
          "type": "address"
        },
        {
          "internalType": "string",
          "name": "name",
          "type": "string"
        },
        {
          "internalType": "string",
          "name": "location",
          "type": "string"
        }
      ],
      "stateMutability": "view",
      "type": "function",
      "constant": true
    },
    {
      "inputs": [
        {
          "internalType": "address",
          "name": "",
          "type": "address"
        }
      ],
      "name": "manufacturers",
      "outputs": [
        {
          "internalType": "address",
          "name": "addr",
          "type": "address"
        },
        {
          "internalType": "string",
          "name": "name",
          "type": "string"
        },
        {
          "internalType": "string",
          "name": "location",
          "type": "string"
        }
      ],
      "stateMutability": "view",
      "type": "function",
      "constant": true
    },
    {
      "inputs": [],
      "name": "medicineCounter",
      "outputs": [
        {
          "internalType": "uint256",
          "name": "",
          "type": "uint256"
        }
      ],
      "stateMutability": "view",
      "type": "function",
      "constant": true
    },
    {
      "inputs": [
        {
          "internalType": "uint256",
          "name": "",
          "type": "uint256"
        }
      ],
      "name": "medicines",
      "outputs": [
        {
          "internalType": "uint256",
          "name": "id",
          "type": "uint256"
        },
        {
          "internalType": "string",
          "name": "name",
          "type": "string"
        },
        {
          "internalType": "string",
          "name": "description",
          "type": "string"
        },
        {
          "internalType": "address",
          "name": "supplier",
          "type": "address"
        },
        {
          "internalType": "address",
          "name": "manufacturer",
          "type": "address"
        },
        {
          "internalType": "address",
          "name": "distributor",
          "type": "address"
        },
        {
          "internalType": "address",
          "name": "retailer",
          "type": "address"
        },
        {
          "internalType": "enum SupplyChain.Stage",
          "name": "stage",
          "type": "uint8"
        }
      ],
      "stateMutability": "view",
      "type": "function",
      "constant": true
    },
    {
      "inputs": [],
      "name": "owner",
      "outputs": [
        {
          "internalType": "address",
          "name": "",
          "type": "address"
        }
      ],
      "stateMutability": "view",
      "type": "function",
      "constant": true
    },
    {
      "inputs": [
        {
          "internalType": "address",
          "name": "",
          "type": "address"
        }
      ],
      "name": "retailers",
      "outputs": [
        {
          "internalType": "address",
          "name": "addr",
          "type": "address"
        },
        {
          "internalType": "string",
          "name": "name",
          "type": "string"
        },
        {
          "internalType": "string",
          "name": "location",
          "type": "string"
        }
      ],
      "stateMutability": "view",
      "type": "function",
      "constant": true
    },
    {
      "inputs": [
        {
          "internalType": "string",
          "name": "",
          "type": "string"
        }
      ],
      "name": "shipments",
      "outputs": [
        {
          "internalType": "uint256",
          "name": "medicineId",
          "type": "uint256"
        },
        {
          "internalType": "address",
          "name": "sender",
          "type": "address"
        },
        {
          "internalType": "address",
          "name": "receiver",
          "type": "address"
        },
        {
          "internalType": "string",
          "name": "trackingId",
          "type": "string"
        },
        {
          "internalType": "enum SupplyChain.ShipmentStatus",
          "name": "status",
          "type": "uint8"
        },
        {
          "internalType": "string",
          "name": "notes",
          "type": "string"
        }
      ],
      "stateMutability": "view",
      "type": "function",
      "constant": true
    },
    {
      "inputs": [
        {
          "internalType": "address",
          "name": "",
          "type": "address"
        }
      ],
      "name": "suppliers",
      "outputs": [
        {
          "internalType": "address",
          "name": "addr",
          "type": "address"
        },
        {
          "internalType": "string",
          "name": "name",
          "type": "string"
        },
        {
          "internalType": "string",
          "name": "location",
          "type": "string"
        }
      ],
      "stateMutability": "view",
      "type": "function",
      "constant": true
    },
    {
      "inputs": [
        {
          "internalType": "uint256",
          "name": "",
          "type": "uint256"
        }
      ],
      "name": "transactions",
      "outputs": [
        {
          "internalType": "uint256",
          "name": "medicineId",
          "type": "uint256"
        },
        {
          "internalType": "address",
          "name": "participant",
          "type": "address"
        },
        {
          "internalType": "string",
          "name": "action",
          "type": "string"
        },
        {
          "internalType": "uint256",
          "name": "timestamp",
          "type": "uint256"
        }
      ],
      "stateMutability": "view",
      "type": "function",
      "constant": true
    },
    {
      "inputs": [
        {
          "internalType": "address",
          "name": "newOwner",
          "type": "address"
        }
      ],
      "name": "transferOwnership",
      "outputs": [],
      "stateMutability": "nonpayable",
      "type": "function"
    },
    {
      "inputs": [
        {
          "internalType": "string",
          "name": "_name",
          "type": "string"
        },
        {
          "internalType": "string",
          "name": "_description",
          "type": "string"
        }
      ],
      "name": "addMedicine",
      "outputs": [],
      "stateMutability": "nonpayable",
      "type": "function"
    },
    {
      "inputs": [
        {
          "internalType": "address",
          "name": "_addr",
          "type": "address"
        },
        {
          "internalType": "string",
          "name": "_name",
          "type": "string"
        },
        {
          "internalType": "string",
          "name": "_location",
          "type": "string"
        }
      ],
      "name": "addSupplier",
      "outputs": [],
      "stateMutability": "nonpayable",
      "type": "function"
    },
    {
      "inputs": [
        {
          "internalType": "address",
          "name": "_addr",
          "type": "address"
        },
        {
          "internalType": "string",
          "name": "_name",
          "type": "string"
        },
        {
          "internalType": "string",
          "name": "_location",
          "type": "string"
        }
      ],
      "name": "addManufacturer",
      "outputs": [],
      "stateMutability": "nonpayable",
      "type": "function"
    },
    {
      "inputs": [
        {
          "internalType": "address",
          "name": "_addr",
          "type": "address"
        },
        {
          "internalType": "string",
          "name": "_name",
          "type": "string"
        },
        {
          "internalType": "string",
          "name": "_location",
          "type": "string"
        }
      ],
      "name": "addDistributor",
      "outputs": [],
      "stateMutability": "nonpayable",
      "type": "function"
    },
    {
      "inputs": [
        {
          "internalType": "address",
          "name": "_addr",
          "type": "address"
        },
        {
          "internalType": "string",
          "name": "_name",
          "type": "string"
        },
        {
          "internalType": "string",
          "name": "_location",
          "type": "string"
        }
      ],
      "name": "addRetailer",
      "outputs": [],
      "stateMutability": "nonpayable",
      "type": "function"
    },
    {
      "inputs": [
        {
          "internalType": "uint256",
          "name": "_medicineID",
          "type": "uint256"
        }
      ],
      "name": "supplyRawMaterials",
      "outputs": [],
      "stateMutability": "nonpayable",
      "type": "function"
    },
    {
      "inputs": [
        {
          "internalType": "uint256",
          "name": "_medicineID",
          "type": "uint256"
        }
      ],
      "name": "manufactureMedicine",
      "outputs": [],
      "stateMutability": "nonpayable",
      "type": "function"
    },
    {
      "inputs": [
        {
          "internalType": "uint256",
          "name": "_medicineID",
          "type": "uint256"
        }
      ],
      "name": "distributeMedicine",
      "outputs": [],
      "stateMutability": "nonpayable",
      "type": "function"
    },
    {
      "inputs": [
        {
          "internalType": "uint256",
          "name": "_medicineID",
          "type": "uint256"
        }
      ],
      "name": "retailMedicine",
      "outputs": [],
      "stateMutability": "nonpayable",
      "type": "function"
    },
    {
      "inputs": [
        {
          "internalType": "uint256",
          "name": "_medicineID",
          "type": "uint256"
        }
      ],
      "name": "sellMedicine",
      "outputs": [],
      "stateMutability": "nonpayable",
      "type": "function"
    },
    {
      "inputs": [
        {
          "internalType": "uint256",
          "name": "_medicineID",
          "type": "uint256"
        }
      ],
      "name": "getMedicineStage",
      "outputs": [
        {
          "internalType": "string",
          "name": "",
          "type": "string"
        }
      ],
      "stateMutability": "view",
      "type": "function",
      "constant": true
    },
    {
      "inputs": [
        {
          "internalType": "uint256",
          "name": "_medicineID",
          "type": "uint256"
        },
        {
          "internalType": "address",
          "name": "_receiver",
          "type": "address"
        },
        {
          "internalType": "string",
          "name": "_trackingId",
          "type": "string"
        }
      ],
      "name": "createShipment",
      "outputs": [],
      "stateMutability": "nonpayable",
      "type": "function"
    },
    {
      "inputs": [
        {
          "internalType": "string",
          "name": "_trackingId",
          "type": "string"
        },
        {
          "internalType": "enum SupplyChain.ShipmentStatus",
          "name": "_status",
          "type": "uint8"
        }
      ],
      "name": "updateShipmentStatus",
      "outputs": [],
      "stateMutability": "nonpayable",
      "type": "function"
    },
    {
      "inputs": [],
      "name": "getTransactions",
      "outputs": [
        {
          "components": [
            {
              "internalType": "uint256",
              "name": "medicineId",
              "type": "uint256"
            },
            {
              "internalType": "address",
              "name": "participant",
              "type": "address"
            },
            {
              "internalType": "string",
              "name": "action",
              "type": "string"
            },
            {
              "internalType": "uint256",
              "name": "timestamp",
              "type": "uint256"
            }
          ],
          "internalType": "struct SupplyChain.Transaction[]",
          "name": "",
          "type": "tuple[]"
        }
      ],
      "stateMutability": "view",
      "type": "function",
      "constant": true
    },
    {
      "inputs": [
        {
          "internalType": "string",
          "name": "_trackingId",
          "type": "string"
        },
        {
          "internalType": "string",
          "name": "_notes",
          "type": "string"
        }
      ],
      "name": "updateShipmentStatusWithNote",
      "outputs": [],
      "stateMutability": "nonpayable",
      "type": "function"
    },
    {
      "inputs": [
        {
          "internalType": "string",
          "name": "_trackingId",
          "type": "string"
        }
      ],
      "name": "getShipmentDetails",
      "outputs": [
        {
          "internalType": "uint256",
          "name": "medicineId",
          "type": "uint256"
        },
        {
          "internalType": "address",
          "name": "sender",
          "type": "address"
        },
        {
          "internalType": "address",
          "name": "receiver",
          "type": "address"
        },
        {
          "internalType": "string",
          "name": "trackingId",
          "type": "string"
        },
        {
          "internalType": "enum SupplyChain.ShipmentStatus",
          "name": "status",
          "type": "uint8"
        },
        {
          "internalType": "string",
          "name": "notes",
          "type": "string"
        }
      ],
      "stateMutability": "view",
      "type": "function",
      "constant": true
    }
  ],
  "bytecode": "0x608060405234801561001057600080fd5b50600080546001600160a01b03191633179055612a97806100326000396000f3fe608060405234801561001057600080fd5b506004361061018e5760003560e01c80639ace38c2116100de578063c85e766d11610097578063e46f01f211610071578063e46f01f2146103b0578063e7d5c46a146103c3578063eddea144146103d6578063f2fde38b146103e957600080fd5b8063c85e766d14610363578063cc6427841461038a578063ce90ceff1461039d57600080fd5b80639ace38c2146102dd578063a288bb9e14610300578063ac859a4b14610313578063b02385ea1461032a578063b5fabfda1461033d578063b8ee738c1461035057600080fd5b80636b5eb09c1161014b5780638da5cb5b116101255780638da5cb5b146102795780638f001323146102a45780638f4183cc146102b75780639a268f35146102ca57600080fd5b80636b5eb09c1461023e57806383920e9014610251578063857ddb041461026657600080fd5b806316dc15fe146101935780632a4af440146101be5780635ceaef5b146101d35780635cf723a3146101f85780635f8b72f9146102185780636a992c9f1461022b575b600080fd5b6101a66101a13660046121db565b6103fc565b6040516101b59392919061224d565b60405180910390f35b6101d16101cc366004612330565b610539565b005b6101e66101e13660046123a4565b610634565b6040516101b59695949392919061240b565b61020b610206366004612469565b61079b565b6040516101b59190612482565b6101d1610226366004612495565b610a30565b6101d1610239366004612330565b610d17565b6101a661024c3660046121db565b610dfd565b610259610e29565b6040516101b591906124f9565b6101d1610274366004612330565b610f44565b60005461028c906001600160a01b031681565b6040516001600160a01b0390911681526020016101b5565b6101d16102b2366004612469565b611026565b6101d16102c5366004612495565b611150565b6101a66102d83660046121db565b6112ea565b6102f06102eb366004612469565b611316565b6040516101b59493929190612590565b6101d161030e366004612469565b6113e5565b61031c60085481565b6040519081526020016101b5565b6101d1610338366004612469565b611530565b6101d161034b366004612330565b611674565b6101d161035e366004612469565b611756565b610376610371366004612469565b611899565b6040516101b59897969594939291906125db565b6101a66103983660046121db565b611a00565b6101d16103ab366004612641565b611a2c565b6101e66103be3660046123a4565b611bc5565b6101d16103d136600461268e565b611e07565b6101d16103e4366004612469565b611eda565b6101d16103f73660046121db565b612017565b600260205260009081526040902080546001820180546001600160a01b039092169291610428906126e4565b80601f0160208091040260200160405190810160405280929190818152602001828054610454906126e4565b80156104a15780601f10610476576101008083540402835291602001916104a1565b820191906000526020600020905b81548152906001019060200180831161048457829003601f168201915b5050505050908060020180546104b6906126e4565b80601f01602080910402602001604051908101604052809291908181526020018280546104e2906126e4565b801561052f5780601f106105045761010080835404028352916020019161052f565b820191906000526020600020905b81548152906001019060200180831161051257829003601f168201915b5050505050905083565b6000546001600160a01b0316331461056c5760405162461bcd60e51b81526004016105639061271e565b60405180910390fd5b604080516060810182526001600160a01b03858116808352602080840187815284860187905260009283526004909152939020825181546001600160a01b0319169216919091178155915190919060018201906105c99082612794565b50604082015160028201906105de9082612794565b50905050826001600160a01b0316600080516020612a22833981519152604051610627906020808252600b908201526a2234b9ba3934b13aba37b960a91b604082015260600190565b60405180910390a2505050565b8051602081830181018051600682529282019190930120915280546001820154600283015460038401805493946001600160a01b0393841694939092169261067b906126e4565b80601f01602080910402602001604051908101604052809291908181526020018280546106a7906126e4565b80156106f45780601f106106c9576101008083540402835291602001916106f4565b820191906000526020600020905b8154815290600101906020018083116106d757829003601f168201915b5050506004840154600585018054949560ff909216949193509150610718906126e4565b80601f0160208091040260200160405190810160405280929190818152602001828054610744906126e4565b80156107915780601f1061076657610100808354040283529160200191610791565b820191906000526020600020905b81548152906001019060200180831161077457829003601f168201915b5050505050905086565b60606000821180156107af57506008548211155b6107f15760405162461bcd60e51b8152602060048201526013602482015272125b9d985b1a59081b59591a58da5b99481251606a1b6044820152606401610563565b60008083815260016020526040902060060154600160a01b900460ff16600581111561081f5761081f6123e1565b0361084757505060408051808201909152600781526613dc99195c995960ca1b602082015290565b6001600083815260016020526040902060060154600160a01b900460ff166005811115610876576108766123e1565b036108ac57505060408051808201909152601581527414985dc813585d195c9a585b0814dd5c1c1b1a5959605a1b602082015290565b6002600083815260016020526040902060060154600160a01b900460ff1660058111156108db576108db6123e1565b0361090857505060408051808201909152600c81526b13585b9d599858dd1d5c995960a21b602082015290565b6003600083815260016020526040902060060154600160a01b900460ff166005811115610937576109376123e1565b0361096357505060408051808201909152600b81526a111a5cdd1c9a589d5d195960aa1b602082015290565b6004600083815260016020526040902060060154600160a01b900460ff166005811115610992576109926123e1565b036109b957505060408051808201909152600681526514995d185a5b60d21b602082015290565b6005600083815260016020526040902060060154600160a01b900460ff1660058111156109e8576109e86123e1565b03610a0d57505060408051808201909152600481526314dbdb1960e21b602082015290565b50506040805180820190915260078152662ab735b737bbb760c91b602082015290565b60006001600160a01b0316600683604051610a4b9190612854565b908152604051908190036020019020600101546001600160a01b031603610a845760405162461bcd60e51b815260040161056390612870565b6000815111610acd5760405162461bcd60e51b81526020600482015260156024820152744e6f7465732063616e6e6f7420626520656d70747960581b6044820152606401610563565b336001600160a01b0316600683604051610ae79190612854565b908152604051908190036020019020600101546001600160a01b03161480610b425750336001600160a01b0316600683604051610b249190612854565b908152604051908190036020019020600201546001600160a01b0316145b610ba35760405162461bcd60e51b815260206004820152602c60248201527f4f6e6c7920736869706d656e74207061727469636970616e74732063616e207560448201526b70646174652073746174757360a01b6064820152608401610563565b6000600683604051610bb59190612854565b90815260200160405180910390206005018054610bd1906126e4565b90501115610c4e57600682604051610be99190612854565b908152602001604051809103902060050181604051602001610c0c92919061289c565b604051602081830303815290604052600683604051610c2b9190612854565b90815260200160405180910390206005019081610c489190612794565b50610c7e565b80600683604051610c5f9190612854565b90815260200160405180910390206005019081610c7c9190612794565b505b6000600683604051610c909190612854565b9081526020016040518091039020600001549050610cce8183604051602001610cb9919061293a565b604051602081830303815290604052336120ab565b336001600160a01b03168160007f64b1b49d2c8bc3ab4e2e377468b6cb974a19af1e13318885791ad4a7b2977b0b85604051610d0a9190612482565b60405180910390a4505050565b6000546001600160a01b03163314610d415760405162461bcd60e51b81526004016105639061271e565b604080516060810182526001600160a01b03858116808352602080840187815284860187905260009283526003909152939020825181546001600160a01b031916921691909117815591519091906001820190610d9e9082612794565b5060408201516002820190610db39082612794565b50905050826001600160a01b0316600080516020612a22833981519152604051610627906020808252600c908201526b26b0b73ab330b1ba3ab932b960a11b604082015260600190565b600360205260009081526040902080546001820180546001600160a01b039092169291610428906126e4565b60606007805480602002602001604051908101604052809291908181526020016000905b82821015610f3b57600084815260209081902060408051608081018252600486029092018054835260018101546001600160a01b03169383019390935260028301805492939291840191610ea0906126e4565b80601f0160208091040260200160405190810160405280929190818152602001828054610ecc906126e4565b8015610f195780601f10610eee57610100808354040283529160200191610f19565b820191906000526020600020905b815481529060010190602001808311610efc57829003601f168201915b5050505050815260200160038201548152505081526020019060010190610e4d565b50505050905090565b6000546001600160a01b03163314610f6e5760405162461bcd60e51b81526004016105639061271e565b604080516060810182526001600160a01b03858116808352602080840187815284860187905260009283526005909152939020825181546001600160a01b031916921691909117815591519091906001820190610fcb9082612794565b5060408201516002820190610fe09082612794565b50905050826001600160a01b0316600080516020612a22833981519152604051610627906020808252600890820152672932ba30b4b632b960c11b604082015260600190565b6000818152600160205260409020600601546001600160a01b0316331461108f5760405162461bcd60e51b815260206004820152601960248201527f4e6f74207468652061737369676e65642072657461696c6572000000000000006044820152606401610563565b6004600082815260016020526040902060060154600160a01b900460ff1660058111156110be576110be6123e1565b146110db5760405162461bcd60e51b815260040161056390612973565b60008181526001602052604090819020600601805460ff60a01b1916600560a01b179055518190600080516020612a428339815191529061111e9060059061299a565b60405180910390a261114d816040518060400160405280600481526020016314dbdb1960e21b815250336120ab565b50565b6000546001600160a01b0316331461117a5760405162461bcd60e51b81526004016105639061271e565b6008805490600061118a836129ae565b909155505060408051610100810182526008548152602081018490529081018290526000606082018190526080820181905260a0820181905260c0820181905260e082015260085460009081526001602081815260409092208351815591830151908201906111f99082612794565b506040820151600282019061120e9082612794565b5060608201516003820180546001600160a01b03199081166001600160a01b03938416179091556080840151600484018054831691841691909117905560a08401516005808501805484169285169290921790915560c085015160068501805493841691909416908117845560e086015193926001600160a81b0319161790600160a01b9084908111156112a4576112a46123e1565b02179055509050506008547f391a5327e58df0236e727eae6e91d54d5aae7a950c4e6616893611e349f6c64e836040516112de9190612482565b60405180910390a25050565b600560205260009081526040902080546001820180546001600160a01b039092169291610428906126e4565b6007818154811061132657600080fd5b60009182526020909120600490910201805460018201546002830180549294506001600160a01b03909116929161135c906126e4565b80601f0160208091040260200160405190810160405280929190818152602001828054611388906126e4565b80156113d55780601f106113aa576101008083540402835291602001916113d5565b820191906000526020600020905b8154815290600101906020018083116113b857829003601f168201915b5050505050908060030154905084565b336000908152600260205260409020546001600160a01b031661144a5760405162461bcd60e51b815260206004820152601960248201527f4e6f742061207265676973746572656420737570706c696572000000000000006044820152606401610563565b60008082815260016020526040902060060154600160a01b900460ff166005811115611478576114786123e1565b146114955760405162461bcd60e51b815260040161056390612973565b60008181526001602081905260409091206003810180546001600160a01b03191633179055600601805460ff60a01b1916600160a01b83021790555080600080516020612a4283398151915260016040516114f0919061299a565b60405180910390a261114d816040518060400160405280601581526020017414985dc813585d195c9a585b0814dd5c1c1b1a5959605a1b815250336120ab565b336000908152600360205260409020546001600160a01b03166115955760405162461bcd60e51b815260206004820152601d60248201527f4e6f7420612072656769737465726564206d616e7566616374757265720000006044820152606401610563565b6001600082815260016020526040902060060154600160a01b900460ff1660058111156115c4576115c46123e1565b146115e15760405162461bcd60e51b815260040161056390612973565b60008181526001602052604090206004810180546001600160a01b0319163317905560060180546002919060ff60a01b1916600160a01b83021790555080600080516020612a42833981519152600260405161163d919061299a565b60405180910390a261114d816040518060400160405280600c81526020016b13585b9d599858dd1d5c995960a21b815250336120ab565b6000546001600160a01b0316331461169e5760405162461bcd60e51b81526004016105639061271e565b604080516060810182526001600160a01b03858116808352602080840187815284860187905260009283526002909152939020825181546001600160a01b0319169216919091178155915190919060018201906116fb9082612794565b50604082015160028201906117109082612794565b50905050826001600160a01b0316600080516020612a228339815191526040516106279060208082526008908201526729bab8383634b2b960c11b604082015260600190565b336000908152600460205260409020546001600160a01b03166117bb5760405162461bcd60e51b815260206004820152601c60248201527f4e6f7420612072656769737465726564206469737472696275746f72000000006044820152606401610563565b6002600082815260016020526040902060060154600160a01b900460ff1660058111156117ea576117ea6123e1565b146118075760405162461bcd60e51b815260040161056390612973565b60008181526001602052604090206005810180546001600160a01b0319163317905560060180546003919060ff60a01b1916600160a01b83021790555080600080516020612a428339815191526003604051611863919061299a565b60405180910390a261114d816040518060400160405280600b81526020016a111a5cdd1c9a589d5d195960aa1b815250336120ab565b6001602081905260009182526040909120805491810180546118ba906126e4565b80601f01602080910402602001604051908101604052809291908181526020018280546118e6906126e4565b80156119335780601f1061190857610100808354040283529160200191611933565b820191906000526020600020905b81548152906001019060200180831161191657829003601f168201915b505050505090806002018054611948906126e4565b80601f0160208091040260200160405190810160405280929190818152602001828054611974906126e4565b80156119c15780601f10611996576101008083540402835291602001916119c1565b820191906000526020600020905b8154815290600101906020018083116119a457829003601f168201915b5050505060038301546004840154600585015460069095015493946001600160a01b03928316949183169350821691811690600160a01b900460ff1688565b600460205260009081526040902080546001820180546001600160a01b039092169291610428906126e4565b6000838152600160205260409020600501546001600160a01b03163314611aa15760405162461bcd60e51b8152602060048201526024808201527f4f6e6c79206469737472696275746f722063616e2063726561746520736869706044820152631b595b9d60e21b6064820152608401610563565b6040805160c081018252848152336020808301919091526001600160a01b038516828401526060820184905260006080830181905283519182018452815260a08201529051600690611af4908490612854565b908152604080516020928190038301902083518155918301516001830180546001600160a01b03199081166001600160a01b039384161790915591840151600284018054909316911617905560608201516003820190611b549082612794565b50608082015160048201805460ff19166001836002811115611b7857611b786123e1565b021790555060a08201516005820190611b919082612794565b50905050827f492580d8002217ac680e66d4bdd4e8c7ff35808636c281021617b4ca69082051826040516106279190612482565b600080600060606000606060006001600160a01b0316600688604051611beb9190612854565b908152604051908190036020019020600101546001600160a01b031603611c245760405162461bcd60e51b815260040161056390612870565b6000600688604051611c369190612854565b90815260408051918290036020908101832060c0840183528054845260018101546001600160a01b0390811692850192909252600281015490911691830191909152600381018054606084019190611c8d906126e4565b80601f0160208091040260200160405190810160405280929190818152602001828054611cb9906126e4565b8015611d065780601f10611cdb57610100808354040283529160200191611d06565b820191906000526020600020905b815481529060010190602001808311611ce957829003601f168201915b5050509183525050600482015460209091019060ff166002811115611d2d57611d2d6123e1565b6002811115611d3e57611d3e6123e1565b8152602001600582018054611d52906126e4565b80601f0160208091040260200160405190810160405280929190818152602001828054611d7e906126e4565b8015611dcb5780601f10611da057610100808354040283529160200191611dcb565b820191906000526020600020905b815481529060010190602001808311611dae57829003601f168201915b5050509190925250508151602083015160408401516060850151608086015160a090960151939e929d50909b5099509297509550909350505050565b60006001600160a01b0316600683604051611e229190612854565b908152604051908190036020019020600101546001600160a01b031603611e5b5760405162461bcd60e51b815260040161056390612870565b80600683604051611e6c9190612854565b908152604051908190036020019020600401805460ff19166001836002811115611e9857611e986123e1565b02179055507fae57594f667ede24d3c11b1074a763a20137755617ed4ddbcc470c13d6a0e08d8282604051611ece9291906129d5565b60405180910390a15050565b336000908152600560205260409020546001600160a01b0316611f3f5760405162461bcd60e51b815260206004820152601960248201527f4e6f74206120726567697374657265642072657461696c6572000000000000006044820152606401610563565b6003600082815260016020526040902060060154600160a01b900460ff166005811115611f6e57611f6e6123e1565b14611f8b5760405162461bcd60e51b815260040161056390612973565b6000818152600160205260409081902060060180546001600160a81b0319163360ff60a01b191617600160a21b179055518190600080516020612a4283398151915290611fda9060049061299a565b60405180910390a261114d8160405180604001604052806012815260200171417661696c61626c6520666f722053616c6560701b815250336120ab565b6000546001600160a01b031633146120415760405162461bcd60e51b81526004016105639061271e565b6001600160a01b0381166120895760405162461bcd60e51b815260206004820152600f60248201526e496e76616c6964206164647265737360881b6044820152606401610563565b600080546001600160a01b0319166001600160a01b0392909216919091179055565b604080516080810182528481526001600160a01b03838116602083019081529282018581524260608401526007805460018101825560009190915283517fa66cc928b5edb82af9bd49922954155ab7b0942694bea4ce44661d9a8736c688600490920291820190815594517fa66cc928b5edb82af9bd49922954155ab7b0942694bea4ce44661d9a8736c689820180546001600160a01b0319169190941617909255519192917fa66cc928b5edb82af9bd49922954155ab7b0942694bea4ce44661d9a8736c68a909101906121809082612794565b50606082015181600301555050827f0a64252f3b82f7e56a5062061bc724525ad4b4aeeb69f1dc73857fbb8d816bd883836040516106279291906129f7565b80356001600160a01b03811681146121d657600080fd5b919050565b6000602082840312156121ed57600080fd5b6121f6826121bf565b9392505050565b60005b83811015612218578181015183820152602001612200565b50506000910152565b600081518084526122398160208601602086016121fd565b601f01601f19169290920160200192915050565b6001600160a01b038416815260606020820181905260009061227190830185612221565b82810360408401526122838185612221565b9695505050505050565b634e487b7160e01b600052604160045260246000fd5b600082601f8301126122b457600080fd5b813567ffffffffffffffff808211156122cf576122cf61228d565b604051601f8301601f19908116603f011681019082821181831017156122f7576122f761228d565b8160405283815286602085880101111561231057600080fd5b836020870160208301376000602085830101528094505050505092915050565b60008060006060848603121561234557600080fd5b61234e846121bf565b9250602084013567ffffffffffffffff8082111561236b57600080fd5b612377878388016122a3565b9350604086013591508082111561238d57600080fd5b5061239a868287016122a3565b9150509250925092565b6000602082840312156123b657600080fd5b813567ffffffffffffffff8111156123cd57600080fd5b6123d9848285016122a3565b949350505050565b634e487b7160e01b600052602160045260246000fd5b60038110612407576124076123e1565b9052565b8681526001600160a01b0386811660208301528516604082015260c06060820181905260009061243d90830186612221565b61244a60808401866123f7565b82810360a084015261245c8185612221565b9998505050505050505050565b60006020828403121561247b57600080fd5b5035919050565b6020815260006121f66020830184612221565b600080604083850312156124a857600080fd5b823567ffffffffffffffff808211156124c057600080fd5b6124cc868387016122a3565b935060208501359150808211156124e257600080fd5b506124ef858286016122a3565b9150509250929050565b60006020808301818452808551808352604092508286019150828160051b87010184880160005b8381101561258257888303603f19018552815180518452878101516001600160a01b0316888501528681015160808886018190529061256182870182612221565b60609384015196909301959095525094870194925090860190600101612520565b509098975050505050505050565b8481526001600160a01b03841660208201526080604082018190526000906125ba90830185612221565b905082606083015295945050505050565b60068110612407576124076123e1565b60006101008a83528060208401526125f58184018b612221565b90508281036040840152612609818a612221565b6001600160a01b038981166060860152888116608086015287811660a0860152861660c0850152915061245c905060e08301846125cb565b60008060006060848603121561265657600080fd5b83359250612666602085016121bf565b9150604084013567ffffffffffffffff81111561268257600080fd5b61239a868287016122a3565b600080604083850312156126a157600080fd5b823567ffffffffffffffff8111156126b857600080fd5b6126c4858286016122a3565b9250506020830135600381106126d957600080fd5b809150509250929050565b600181811c908216806126f857607f821691505b60208210810361271857634e487b7160e01b600052602260045260246000fd5b50919050565b6020808252600d908201526c2737ba103a34329037bbb732b960991b604082015260600190565b601f82111561278f57600081815260208120601f850160051c8101602086101561276c5750805b601f850160051c820191505b8181101561278b57828155600101612778565b5050505b505050565b815167ffffffffffffffff8111156127ae576127ae61228d565b6127c2816127bc84546126e4565b84612745565b602080601f8311600181146127f757600084156127df5750858301515b600019600386901b1c1916600185901b17855561278b565b600085815260208120601f198616915b8281101561282657888601518255948401946001909101908401612807565b50858210156128445787850151600019600388901b60f8161c191681555b5050505050600190811b01905550565b600082516128668184602087016121fd565b9190910192915050565b60208082526012908201527114da1a5c1b595b9d081b9bdd08199bdd5b9960721b604082015260600190565b60008084546128aa816126e4565b600182811680156128c257600181146128d757612906565b60ff1984168752821515830287019450612906565b8860005260208060002060005b858110156128fd5781548a8201529084019082016128e4565b50505082870194505b505050506a0103e102aa82220aa229d160ad1b8152835161292e81600b8401602088016121fd565b01600b01949350505050565b70029b434b836b2b73a102ab83230ba329d1607d1b8152600082516129668160118501602087016121fd565b9190910160110192915050565b6020808252600d908201526c496e76616c696420737461676560981b604082015260600190565b602081016129a882846125cb565b92915050565b6000600182016129ce57634e487b7160e01b600052601160045260246000fd5b5060010190565b6040815260006129e86040830185612221565b90506121f660208301846123f7565b604081526000612a0a6040830185612221565b905060018060a01b0383166020830152939250505056fe54d9fcf3da31043daf69e0a8ad35eaf7cfae552733f792dc3d95805eb45bfec201689b180f81c4e9d8925da92a012114998acc4fdf0267f01c37d5cecf707651a2646970667358221220b31d651834ad388187e88c67fb357dcf26f1714d7f20aa654e03016b7122b34364736f6c63430008140033",
  "immutableReferences": {},
  "source": "// SPDX-License-Identifier: MIT\r\npragma solidity ^0.8.20;\r\n\r\ncontract SupplyChain {\r\n    address public owner;  // Contract owner\r\n\r\n    constructor() {\r\n        owner = msg.sender;  // Set deployer as owner\r\n    }\r\n\r\n    // Modifier to allow only the owner to execute certain functions\r\n    modifier onlyOwner() {\r\n        require(msg.sender == owner, \"Not the owner\");\r\n        _;\r\n    }\r\n\r\n    // Transfer ownership to another address (if needed)\r\n    function transferOwnership(address newOwner) public onlyOwner {\r\n        require(newOwner != address(0), \"Invalid address\");\r\n        owner = newOwner;\r\n    }\r\n\r\n    // Enum to represent different supply chain stages\r\n    enum Stage {\r\n        Ordered,\r\n        RawMaterialSupplied,\r\n        Manufactured,\r\n        Distributed,\r\n        Retail,\r\n        Sold\r\n    }\r\n\r\n    // Enum to represent shipment status\r\n    enum ShipmentStatus {\r\n        Pending,\r\n        InTransit,\r\n        Delivered\r\n    }\r\n\r\n    // Structure to store details of a medicine\r\n    struct Medicine {\r\n        uint256 id;\r\n        string name;\r\n        string description;\r\n        address supplier;\r\n        address manufacturer;\r\n        address distributor;\r\n        address retailer;\r\n        Stage stage;\r\n    }\r\n\r\n    // Structure for supply chain participants\r\n    struct Participant {\r\n        address addr;\r\n        string name;\r\n        string location;\r\n    }\r\n\r\n    // Structure for shipment tracking\r\n    struct Shipment {\r\n        uint256 medicineId;\r\n        address sender;\r\n        address receiver;\r\n        string trackingId;\r\n        ShipmentStatus status;\r\n        string notes;  // Added for storing updates\r\n    }\r\n\r\n    // Structure for transaction tracking\r\n    struct Transaction {\r\n        uint256 medicineId;\r\n        address participant;\r\n        string action;\r\n        uint256 timestamp;\r\n    }\r\n\r\n    // Mappings to store data\r\n    mapping(uint256 => Medicine) public medicines;\r\n    mapping(address => Participant) public suppliers;\r\n    mapping(address => Participant) public manufacturers;\r\n    mapping(address => Participant) public distributors;\r\n    mapping(address => Participant) public retailers;\r\n    mapping(string => Shipment) public shipments;\r\n    Transaction[] public transactions;\r\n\r\n    // Counters to assign unique IDs\r\n    uint256 public medicineCounter;\r\n\r\n    // Events\r\n    event MedicineAdded(uint256 indexed medicineId, string name);\r\n    event ParticipantAdded(address indexed participant, string role);\r\n    event MedicineStageUpdated(uint256 indexed medicineId, Stage newStage);\r\n    event ShipmentCreated(uint256 indexed medicineId, string trackingId);\r\n    event ShipmentUpdated(string trackingId, ShipmentStatus status);\r\n    event TransactionRecorded(uint256 indexed medicineId, string action, address participant);\r\n    event ShipmentStatusUpdated(\r\n        uint256 indexed shipmentId, \r\n        uint256 indexed medicineId, \r\n        string notes, \r\n        address indexed updatedBy\r\n    );\r\n\r\n    // Add new medicine (only owner)\r\n    function addMedicine(string memory _name, string memory _description) public onlyOwner {\r\n        medicineCounter++;\r\n        medicines[medicineCounter] = Medicine(\r\n            medicineCounter,\r\n            _name,\r\n            _description,\r\n            address(0),\r\n            address(0),\r\n            address(0),\r\n            address(0),\r\n            Stage.Ordered\r\n        );\r\n\r\n        emit MedicineAdded(medicineCounter, _name);\r\n    }\r\n\r\n    // Register supply chain participants (only owner)\r\n    function addSupplier(address _addr, string memory _name, string memory _location) public onlyOwner {\r\n        suppliers[_addr] = Participant(_addr, _name, _location);\r\n        emit ParticipantAdded(_addr, \"Supplier\");\r\n    }\r\n\r\n    function addManufacturer(address _addr, string memory _name, string memory _location) public onlyOwner {\r\n        manufacturers[_addr] = Participant(_addr, _name, _location);\r\n        emit ParticipantAdded(_addr, \"Manufacturer\");\r\n    }\r\n\r\n    function addDistributor(address _addr, string memory _name, string memory _location) public onlyOwner {\r\n        distributors[_addr] = Participant(_addr, _name, _location);\r\n        emit ParticipantAdded(_addr, \"Distributor\");\r\n    }\r\n\r\n    function addRetailer(address _addr, string memory _name, string memory _location) public onlyOwner {\r\n        retailers[_addr] = Participant(_addr, _name, _location);\r\n        emit ParticipantAdded(_addr, \"Retailer\");\r\n    }\r\n\r\n    // Supply raw materials (Only Supplier)\r\n    function supplyRawMaterials(uint256 _medicineID) public {\r\n        require(suppliers[msg.sender].addr != address(0), \"Not a registered supplier\");\r\n        require(medicines[_medicineID].stage == Stage.Ordered, \"Invalid stage\");\r\n        medicines[_medicineID].supplier = msg.sender;\r\n        medicines[_medicineID].stage = Stage.RawMaterialSupplied;\r\n\r\n        emit MedicineStageUpdated(_medicineID, Stage.RawMaterialSupplied);\r\n        recordTransaction(_medicineID, \"Raw Material Supplied\", msg.sender);\r\n    }\r\n\r\n    // Manufacture medicine (Only Manufacturer)\r\n    function manufactureMedicine(uint256 _medicineID) public {\r\n        require(manufacturers[msg.sender].addr != address(0), \"Not a registered manufacturer\");\r\n        require(medicines[_medicineID].stage == Stage.RawMaterialSupplied, \"Invalid stage\");\r\n        medicines[_medicineID].manufacturer = msg.sender;\r\n        medicines[_medicineID].stage = Stage.Manufactured;\r\n\r\n        emit MedicineStageUpdated(_medicineID, Stage.Manufactured);\r\n        recordTransaction(_medicineID, \"Manufactured\", msg.sender);\r\n    }\r\n\r\n    // Distribute medicine (Only Distributor)\r\n    function distributeMedicine(uint256 _medicineID) public {\r\n        require(distributors[msg.sender].addr != address(0), \"Not a registered distributor\");\r\n        require(medicines[_medicineID].stage == Stage.Manufactured, \"Invalid stage\");\r\n        medicines[_medicineID].distributor = msg.sender;\r\n        medicines[_medicineID].stage = Stage.Distributed;\r\n\r\n        emit MedicineStageUpdated(_medicineID, Stage.Distributed);\r\n        recordTransaction(_medicineID, \"Distributed\", msg.sender);\r\n    }\r\n\r\n    // Retail medicine (Only Retailer)\r\n    function retailMedicine(uint256 _medicineID) public {\r\n        require(retailers[msg.sender].addr != address(0), \"Not a registered retailer\");\r\n        require(medicines[_medicineID].stage == Stage.Distributed, \"Invalid stage\");\r\n        medicines[_medicineID].retailer = msg.sender;\r\n        medicines[_medicineID].stage = Stage.Retail;\r\n\r\n        emit MedicineStageUpdated(_medicineID, Stage.Retail);\r\n        recordTransaction(_medicineID, \"Available for Sale\", msg.sender);\r\n    }\r\n\r\n    // Mark medicine as sold (Only assigned retailer)\r\n    function sellMedicine(uint256 _medicineID) public {\r\n        require(medicines[_medicineID].retailer == msg.sender, \"Not the assigned retailer\");\r\n        require(medicines[_medicineID].stage == Stage.Retail, \"Invalid stage\");\r\n        medicines[_medicineID].stage = Stage.Sold;\r\n\r\n        emit MedicineStageUpdated(_medicineID, Stage.Sold);\r\n        recordTransaction(_medicineID, \"Sold\", msg.sender);\r\n    }\r\n\r\n    // Get current stage of medicine\r\n    function getMedicineStage(uint256 _medicineID) public view returns (string memory) {\r\n        require(_medicineID > 0 && _medicineID <= medicineCounter, \"Invalid medicine ID\");\r\n\r\n        if (medicines[_medicineID].stage == Stage.Ordered) return \"Ordered\";\r\n        if (medicines[_medicineID].stage == Stage.RawMaterialSupplied) return \"Raw Material Supplied\";\r\n        if (medicines[_medicineID].stage == Stage.Manufactured) return \"Manufactured\";\r\n        if (medicines[_medicineID].stage == Stage.Distributed) return \"Distributed\";\r\n        if (medicines[_medicineID].stage == Stage.Retail) return \"Retail\";\r\n        if (medicines[_medicineID].stage == Stage.Sold) return \"Sold\";\r\n\r\n        return \"Unknown\";\r\n    }\r\n\r\n    // Create a shipment\r\n    function createShipment(uint256 _medicineID, address _receiver, string memory _trackingId) public {\r\n        require(medicines[_medicineID].distributor == msg.sender, \"Only distributor can create shipment\");\r\n        shipments[_trackingId] = Shipment(\r\n            _medicineID, \r\n            msg.sender, \r\n            _receiver, \r\n            _trackingId, \r\n            ShipmentStatus.Pending,\r\n            \"\"  // Empty notes initially\r\n        );\r\n\r\n        emit ShipmentCreated(_medicineID, _trackingId);\r\n    }\r\n\r\n    // Update shipment status\r\n    function updateShipmentStatus(string memory _trackingId, ShipmentStatus _status) public {\r\n        require(shipments[_trackingId].sender != address(0), \"Shipment not found\");\r\n        shipments[_trackingId].status = _status;\r\n\r\n        emit ShipmentUpdated(_trackingId, _status);\r\n    }\r\n\r\n    // Get transaction history\r\n    function getTransactions() public view returns (Transaction[] memory) {\r\n        return transactions;\r\n    }\r\n\r\n    // Record transaction\r\n    function recordTransaction(uint256 _medicineID, string memory _action, address _participant) internal {\r\n        transactions.push(Transaction(_medicineID, _participant, _action, block.timestamp));\r\n        emit TransactionRecorded(_medicineID, _action, _participant);\r\n    }\r\n\r\n    // ========== NEW FUNCTION: Update Shipment Status with Notes ==========\r\n    /**\r\n     * @dev Update shipment status with additional notes\r\n     * @param _trackingId The tracking ID of the shipment\r\n     * @param _notes Additional notes about the shipment status\r\n     */\r\n    function updateShipmentStatusWithNote(\r\n        string memory _trackingId,\r\n        string memory _notes\r\n    ) public {\r\n        // Check if shipment exists\r\n        require(shipments[_trackingId].sender != address(0), \"Shipment not found\");\r\n        \r\n        // Validate inputs\r\n        require(bytes(_notes).length > 0, \"Notes cannot be empty\");\r\n        \r\n        // Check authorization: only sender or receiver can update\r\n        require(\r\n            shipments[_trackingId].sender == msg.sender || \r\n            shipments[_trackingId].receiver == msg.sender,\r\n            \"Only shipment participants can update status\"\r\n        );\r\n        \r\n        // Append the new note to existing notes\r\n        if (bytes(shipments[_trackingId].notes).length > 0) {\r\n            shipments[_trackingId].notes = string(abi.encodePacked(\r\n                shipments[_trackingId].notes,\r\n                \" | UPDATE: \",\r\n                _notes\r\n            ));\r\n        } else {\r\n            shipments[_trackingId].notes = _notes;\r\n        }\r\n        \r\n        // Record the update as a transaction\r\n        uint256 medicineId = shipments[_trackingId].medicineId;\r\n        recordTransaction(medicineId, string(abi.encodePacked(\"Shipment Update: \", _notes)), msg.sender);\r\n        \r\n        // Emit event for logging\r\n        emit ShipmentStatusUpdated(0, medicineId, _notes, msg.sender);\r\n    }\r\n    \r\n    // Helper function to get shipment details including notes\r\n    function getShipmentDetails(string memory _trackingId) public view returns (\r\n        uint256 medicineId,\r\n        address sender,\r\n        address receiver,\r\n        string memory trackingId,\r\n        ShipmentStatus status,\r\n        string memory notes\r\n    ) {\r\n        require(shipments[_trackingId].sender != address(0), \"Shipment not found\");\r\n        Shipment memory shipment = shipments[_trackingId];\r\n        return (\r\n            shipment.medicineId,\r\n            shipment.sender,\r\n            shipment.receiver,\r\n            shipment.trackingId,\r\n            shipment.status,\r\n            shipment.notes\r\n        );\r\n    }\r\n}",
  "sourcePath": "C:\\Users\\DELL\\Desktop\\pph\\mirocle\\Medicine-Supply-Chain-Management-main\\contracts\\Supplychain.sol",
  "compiler": {
    "name": "solc",
    "version": "0.8.20+commit.a1b79de6.Emscripten.clang"
  },
  "schemaVersion": "3.4.16",
  "updatedAt": "2026-01-14T08:54:06.065Z",
  "networkType": "ethereum",
  "devdoc": {
    "kind": "dev",
    "methods": {
      "updateShipmentStatusWithNote(string,string)": {
        "details": "Update shipment status with additional notes",
        "params": {
          "_notes": "Additional notes about the shipment status",
          "_trackingId": "The tracking ID of the shipment"
        }
      }
    },
    "version": 1
  },
  "userdoc": {
    "kind": "user",
    "methods": {},
    "version": 1
  }
}